:100000000C943A000C944C000C944C000C944C0052
:100010000C944C000C944C000C944C000C944C0030
:100020000C944C000C944C000C944C000C944C0020
:100030000C944C000C944C000C944C000C944C0010
:100040000C944C000C944C000C944C000C944C0000
:100050000C944C000C944C000C944C000C944C00F0
:100060000C944C000C944C000C944C000C944C00E0
:100070000C944C0011241FBECFEFD2E0DEBFCDBFE9
:1000800021E0A0E0B1E001C01D92A430B207E1F789
:100090000E944E000C9474000C94000080E8809341
:1000A00061001092610083E38AB98BB93A9886B1F6
:1000B00082FB882780F98093030196B192FB9927F0
:1000C00090F990930201981729F0809101018F5FB8
:1000D0008093010190910101892F8C70880F880F06
:0C00E0009370892B8BB9E3CFF894FFCF0D
:00000001FF
