:1000000091C00000AAC00000A8C00000A6C0000067
:10001000A4C00000A2C00000A0C000009EC000005C
:100020009CC000009AC0000098C00000D5C200002B
:100030007CC3000092C0000090C000008EC0000091
:100040008CC000008AC0000088C0000086C000008C
:1000500084C0000082C0000080C000007EC000009C
:100060007CC000007AC0000078C0000076C00000AC
:1000700074C00000F7031904FD041904FD045B04B7
:100080007D04FD04CF04E1043803410076006100E3
:100090006C0061006E006300680065002000450090
:1000A0006E00740072006F0070007900200047003D
:1000B00065006E0065007200610074006F007200E0
:1000C00000000C034B0037004E00560048000000B3
:1000D0000403090409023E00020100C032090400C1
:1000E000000102020100052400100104240206059B
:1000F00024060001070582030800FF09040100022D
:100100000A0000000705040210000507058302101D
:1001100000051201100102000008EB034420010059
:100120000102DC0111241FBECFEFD2E0DEBFCDBF44
:1001300011E0A0E0B1E0E4E0FEE002C005900D9225
:10014000AC31B107D9F721E0ACE1B1E001C01D92BB
:10015000A933B207E1F702D053C652CF84B7877FE5
:1001600084BF88E10FB6F89480936000109260001D
:100170000FBE90E080E80FB6F894809361009093F2
:1001800061000FBE83E38AB98BB93A9816D26EE14B
:1001900071E080E091E038D5789486B182FB8827C1
:1001A00080F9C82F80E0D82F6EE171E0CE01C096B3
:1001B000F5D580E091E0F2D480E091E0D9D436D456
:1001C000ECCF58980895589A089580E091E04AD469
:1001D000882311F059980895599A089580E091E084
:1001E00027C5292F33272230310559F02330310517
:1001F00069F021303105F9F482E190E022E131E04B
:100200001EC08EE390E024ED30E019C099278130C4
:10021000910541F08230910541F0892B61F4E0EDC8
:10022000F0E005C0E2ECF0E002C0E8E8F0E0849124
:1002300090E09F0104C080E090E020E030E0FA010F
:10024000318320830895209137013091380126179A
:10025000370748F06115710539F42091E8002E77D1
:100260002093E80001C0B90120E061157105D1F1CA
:1002700030913001332309F441C0353009F440C0D6
:100280003091E80033FD38C03091E80032FF06C0FD
:100290008091E80082FF29C080E008953091E80055
:1002A00030FFE3CF2091F20030E0FC01281B390B36
:1002B000CF01820F931F6115710549F088309105B8
:1002C00030F481918093F10061507109F1CF21E008
:1002D000089709F020E08091E8008E778093E8008D
:1002E000CF01C3CF2111C4CFD3CF80913001882358
:1002F00029F0853069F604C081E0089582E0089510
:1003000083E008952091370130913801261737078F
:1003100048F06115710539F42091E8002E7720939B
:10032000E80001C0B90120E061157105D9F13091F3
:100330003001332309F442C0353009F441C0309113
:10034000E80033FD39C03091E80032FF06C08091EB
:10035000E80082FF2AC080E008953091E80030FF75
:10036000E3CF2091F20030E0FC01281B390BC901DA
:100370008E0F9F1F6115710551F08830910538F47B
:1003800084918093F100319661507109F0CF21E0A2
:10039000089709F020E08091E8008E778093E800CC
:1003A000CF01C2CF2111C3CFD2CF8091300188239A
:1003B00029F0853061F604C081E0089582E0089557
:1003C00083E00895982F953058F59093E900981799
:1003D00039F07091EC002091ED005091F00003C0D5
:1003E000242F762F50E021FF19C03091EB003E7F83
:1003F0003093EB003091ED003D7F3093ED00309174
:10040000EB0031603093EB007093EC002093ED0033
:100410005093F0002091EE0027FF07C09F5FD3CFDD
:100420008F708093E90081E0089580E008950F9334
:100430001F93CF93DF93062FEC0110E0101769F1A3
:100440009881992339F12C81E981FA816B81892F77
:100450008F70853010F080E021C0223010F056E01F
:1004600001C052E028E030E040E02E173F0720F4C2
:100470004F5F220F331FF9CF4295407F452B991FC5
:100480009927991F6295660F660F607C692B9ADF2A
:10049000882309F31F5F2596D1CF81E0DF91CF91AB
:1004A0001F910F9108958091310187FD05C08091C2
:1004B000E80080FF0EC012C08091E80082FD05C0F8
:1004C000809130018111F8CF08958091E8008B77F9
:1004D00008C0809130018111EACF08958091E80031
:1004E0008E778093E80008958091E4009091E50074
:1004F00045E62091EC0020FF21C02091E80020FD7E
:1005000021C020913001222389F0253089F02091EB
:10051000EB0025FD0FC02091E4003091E500281785
:10052000390739F3415041F0C901E3CF82E0089522
:1005300083E0089581E0089584E008952091E80023
:1005400022FFDFCF80E0089541D043D08091D800D2
:100550008F778093D8008091D80080688093D800EE
:100560008091D8008F7D8093D80084E089BD86E09B
:1005700089BD09B400FEFDCF1092300110922C010C
:1005800010922E0110922D0142E060E080E01ADF0F
:100590008091E1008E7F8093E1008091E200816094
:1005A0008093E2008091E20088608093E200809175
:1005B000E0008E7F8093E0000895E3E6F0E0808124
:1005C0008E7F808381E080932F01BECF1092E20066
:1005D00008951092E10008951F920F920FB60F92A6
:1005E00011242F933F934F935F936F937F938F9338
:1005F0009F93AF93BF93EF93FF938091E10082FFAE
:100600000AC08091E20082FF06C08091E1008B7FEA
:100610008093E1000AD28091E10080FF17C08091B1
:10062000E20080FF13C08091E2008E7F8093E200A1
:100630008091E20080618093E2008091D800806226
:100640008093D80019BC10923001BDDD8091E1008B
:1006500084FF2FC08091E20084FF2BC084E089BD1D
:1006600086E089BD09B400FEFDCF8091D8008F7D62
:100670008093D8008091E1008F7E8093E10080918B
:10068000E2008F7E8093E2008091E200816080939F
:10069000E20080912C01882311F084E007C0809152
:1006A000E30087FF02C083E001C081E08093300156
:1006B00088DD8091E10083FF27C08091E20083FF05
:1006C00023C08091E100877F8093E10082E08093E6
:1006D000300110922C018091E1008E7F8093E10027
:1006E0008091E2008E7F8093E2008091E200806141
:1006F0008093E20042E060E080E064DE8091F00000
:1007000088608093F00091D1FF91EF91BF91AF91FC
:100710009F918F917F916F915F914F913F912F9119
:100720000F900FBE0F901F9018951F920F920FB64B
:100730000F9211242F933F934F935F936F937F9367
:100740008F939F93AF93BF93CF93EF93FF93C091FA
:10075000E900CF708091EC001092E9008091F000E8
:10076000877F8093F00078941BD01092E9008091ED
:10077000F00088608093F000C093E900FF91EF9152
:10078000CF91BF91AF919F918F917F916F915F9129
:100790004F913F912F910F900FBE0F901F90189582
:1007A0001F93CF93DF93CDB7DEB7AA970FB6F89418
:1007B000DEBF0FBECDBFE1E3F1E08091F100819398
:1007C00021E0E933F207C9F709DD8091E80083FFF2
:1007D00014C12091310130913201832F90E08A3091
:1007E000910508F00AC1FC01E65CFF4FD1C2203838
:1007F00081F0223809F001C1809135018F7080931A
:10080000E9008091EB0085FB882780F91092E900D0
:1008100006C080912D0190912E01911182609091DE
:10082000E800977F9093E8008093F1001092F10028
:10083000C1C0822F8D7F09F0E0C0222319F0223041
:1008400061F0DBC080913301813009F0D6C03330D4
:1008500009F080E080932E0128C08091330181113E
:1008600024C0209135012F7009F4C7C02093E900FE
:100870008091EB0080FF19C08091EB00333011F4C0
:10088000806211C080618093EB0081E090E0022ED5
:1008900001C0880F0A94EAF78093EA001092EA00F8
:1008A0008091EB0088608093EB001092E9008091CA
:1008B000E800877F82C02111A0C0109133011F770B
:1008C0008091E3008078812B8093E3008091E800A1
:1008D000877F8093E800E7DD8091E80080FFFCCF10
:1008E0008091E30080688093E300112311F083E09E
:1008F00001C082E08093300180C02058223008F08F
:100900007CC080913301909134018C3D23E09207AB
:1009100071F583E08A838AE289834FB7F894DE0118
:10092000139620E03EE051E2E32FF0E050935700B1
:10093000E49120FF03C0E295EF703F5FEF708E2FD0
:1009400090E0EA3010F0C79601C0C0968D939D9359
:100950002F5F243149F74FBF8091E800877F809354
:10096000E8006AE270E0CE0101966DDC12C0AE01D3
:100970004F5F5F4F6091350134DC009709F43DC053
:100980002091E800277F2093E800BC0189819A81AB
:10099000B9DC8091E8008B778093E8002EC0203886
:1009A00061F58091E800877F8093E80080912C01B9
:1009B0008093F1008091E8008E778093E80073DDEA
:1009C0001CC021111AC0909133019230B0F4809173
:1009D000E800877F8093E80090932C0164DD80918C
:1009E0002C01811104C08091E30087FF02C084E0E4
:1009F00001C081E080933001E8DB8091E80083FF53
:100A00000AC08091E800877F8093E8008091EB0026
:100A100080628093EB00AA960FB6F894DEBF0FBEFB
:100A2000CDBFDF91CF911F9108950895CF9380910D
:100A300030018823A9F08091E9008F709091EC003B
:100A400090FF02C090E801C090E0C92FC82B10921F
:100A5000E9008091E80083FDA3DECF70C093E90038
:100A6000CF910895CF93DF93EC01FC0170968BE05A
:100A7000DF011D928A95E9F782E08C83898783E004
:100A80008E8761E0CE010196D2DC882361F061E0BF
:100A9000CE010696CCDC882331F061E0CE010B96C6
:100AA000DF91CF91C4CC80E0DF91CF910895CF93B7
:100AB000C62F209130012430F1F4FC01448955897E
:100AC00066897789452B462B472BA9F081818F704A
:100AD0008093E9008091E80085FF04C0C093F10095
:100AE00080E00AC08091E8008E778093E800FCDC0B
:100AF0008823A1F301C082E0CF910895FB01682F04
:100B000084859585D4DF21E030E0811102C020E0AA
:100B100030E088279927821B930B0895209130019C
:100B2000243021F5FC014489558966897789452B54
:100B3000462B472BD9F081818F708093E9008091FB
:100B4000F200882389F09091E8008091E8008E7788
:100B50008093E80095FD08C0C7DC811108C0809132
:100B6000E8008E778093E80080E0089582E00895A1
:100B700020913001243089F4FC014489558966892B
:100B80007789452B462B472B41F021812F702093ED
:100B9000E9002091E80020FDC1CF089520913001A7
:100BA000243019F08FEF9FEF0895FC014489558997
:100BB00066897789452B462B472BA1F386818F7059
:100BC0008093E9008091E80082FFECCF8091F200F1
:100BD000882321F02091F10030E002C02FEF3FEF99
:100BE0008091F200811105C08091E8008B7780939D
:100BF000E800C9010895FC0184859585CFDF97FF42
:100C000002C08EEF9FEF0895FB012EE0DB011D92E5
:100C10002A95E9F723E023832EE735E03187208703
:100C20002BEF35E0338722879587848708950895D1
:100C3000CF93DF93EC018091E80083FFA6C0888109
:100C400090E020913501309136012817390709F0DD
:100C50009CC080913201813261F020F4803209F42D
:100C60003EC093C0823209F46CC0833209F47DC067
:100C70008CC080913101813A09F087C08091E800F1
:100C8000877F8093E8008091E80080FFFCCF4C894B
:100C90005D896E897F894093F100BB27A72F962F2E
:100CA000852F8093F100CB01AA27BB278093F10009
:100CB000472F5527662777274093F100888D80932B
:100CC000F100898D8093F1008A8D8093F1008091ED
:100CD000E8008E778093E800DF91CF91E4CB80919C
:100CE0003101813209F051C08091E800877F809303
:100CF000E8008091E80082FD05C0809130018111FB
:100D0000F8CF43C03091F1002091F1009091F100B3
:100D10008091F1003C8B2D8B9E8B8F8B8091F1000D
:100D2000888F8091F100898F8091F1008A8F809166
:100D3000E8008B778093E800B6DBCE01DF91CF919E
:100D400076CF80913101813201F58091E800877F73
:100D50008093E800A8DB8091330190913401998B56
:100D6000888BCE01DF91CF9162CF809131018132AA
:100D700061F48091E800877F8093E80094DB6091C4
:100D80003301CE01DF91CF9152CFDF91CF91089502
:100D9000EE0FFF1F0590F491E02D09940F931F9320
:100DA000CF93DF93182F092FEB018B8181FD03C0B7
:100DB0008FEF9FEF20C082FF10C04E815F812C819A
:100DC0003D81421753077CF4E881F9819F012F5F31
:100DD0003F4F39832883108306C0E885F985812F2A
:100DE0000995892B29F72E813F812F5F3F4F3F8344
:100DF0002E83812F902FDF91CF911F910F91089516
:040E0000F894FFCF94
:100E040000831000000104100000018208000001AA
:0C0E1400000000000000000000000000D2
:00000001FF
